:10000000C3C10000F2C10000F0C10000EEC1000059
:10001000ECC10000EAC10000E8C10000E6C1000038
:10002000E4C10000E2C10000E0C10000DEC1000048
:10003000DCC10000DAC10000D8C10000D6C1000058
:10004000D4C10000D2C10000D0C10000CEC1000068
:10005000CCC10000CAC10000C8C100000C947A0DD8
:10006000C4C100000C94D3080C94AA08BEC10000BF
:10007000BCC10000BAC10000B8C10000B6C1000098
:10008000B4C10000B2C10000B0C10000AEC10000A8
:100090000C9481080C945808A8C10000A6C1000067
:1000A000A4C10000A2C10000A0C100009EC10000C8
:1000B0009CC100009AC1000098C1000096C10000D8
:1000C00094C1000092C1000090C100008EC10000E8
:1000D0008CC100008AC1000088C1000086C10000F8
:1000E00084C10000456E6420746167206E6F7420C7
:1000F000666F756E64004E6F2074616720666F7561
:100100006E64003E3E3E2054494D454F5554203EBE
:100110003E3E0044617461207061636B65742073BE
:10012000656E64206572726F722028322900446106
:100130007461207061636B65742073656E64206503
:1001400072726F72202831290041542B4349505359
:10015000454E443D25642C2575004661696C6564F7
:1001600020746F20777269746520746F20736F63D9
:100170006B65740041542B434950434C4F53453DEC
:10018000256400446973636F6E6E656374696E679E
:10019000200041542B434950535441545553002B94
:1001A0004349505354415455533A25642C000D0A89
:1001B0000053444B2076657273696F6E3A00415468
:1001C0002B474D520041542B4357444843503D3137
:1001D0002C310041542B43574155544F434F4E4E01
:1001E0003D300041542B43495044494E464F3D3128
:1001F0000041542B4349504D55583D310041542B3B
:1002000043574D4F44453D31004154453000415422
:100210002B52535400496E6974696C697A61746930
:100220006F6E207375636365737366756C202D0044
:100230005761726E696E673A20556E737570706F94
:1002400072746564206669726D77617265004361DE
:100250006E6E6F7420696E697469616C697A65206D
:10026000455350206D6F64756C6500415400496EB4
:10027000697469616C697A696E6720455350206DB5
:100280006F64756C6500436F6E6E656374656420A2
:10029000746F004661696C656420636F6E6E6563A0
:1002A00074696E6720746F0041542B43574A415064
:1002B0005F4355523D222573222C222573220022B2
:1002C000002B43574A41503A220041542B43574A8E
:1002D00041503F0022002B43495041503A69703A47
:1002E000220041542B43495041503F0022003A53D1
:1002F000544149502C220041542B4349465352004B
:100300000D0A002C2D0041542B43574A41503F0009
:100310000D0A005354415455533A0041542B43495C
:10032000505354415455530054494D454F55543A38
:100330000054616720434C4F534544206E6F742036
:10034000666F756E64004E6F20736F636B6574200B
:10035000617661696C61626C650041542B43495060
:1003600053544152543D25642C22544350222C2294
:100370002573222C257500436F6E6E656374696E5C
:100380006720746F0000621311241FBECFEFD1E20B
:10039000DEBFCDBF00E00CBF25E0AAE2B4E001C0A3
:1003A0001D92A03FB207E1F714E0A0E0B2E0E4ED57
:1003B000F4E300E00BBF02C007900D92AA32B10730
:1003C000D9F711E0C4ECD1E000E006C021970109A3
:1003D000802FFE010E94F617C33CD10780E008077A
:1003E000A9F70E94550F0C94681A0ACECF92DF929B
:1003F000EF92FF920F931F93CF93DF936C017A01DB
:100400008B01C0E0D0E0CE15DF0589F0D8016D91F9
:100410008D01D601ED91FC910190F081E02DC60196
:100420001995892B11F47E0102C02196ECCFC701EA
:10043000DF91CF911F910F91FF90EF90DF90CF90C0
:100440000895FC01A089B1898C91A689B78982FDA4
:100450000FC09C91818D8F5F8F73228D821749F021
:10046000218DDF01A20FB11D5D969C93818F0895B0
:100470008C910895FC01538D448D252F30E0842FFD
:1004800090E0821B930B541710F0CF9608950197BC
:100490000895FC01918D828D981761F0828DDF01A6
:1004A000A80FB11D5D968C91928D9F5F9F73928F67
:1004B00090E008958FEF9FEF0895FC01918D828D5C
:1004C000981731F0828DE80FF11D858D90E0089529
:1004D0008FEF9FEF0895FC01918D228D892F90E081
:1004E000805C9F4F821B91098F739927089581E744
:1004F00094E0F1DF21E0892B09F420E0822F0895B8
:100500008EE095E0E8DF21E0892B09F420E0822FDE
:100510000895FC01848DDF01A80FB11DA35ABF4FC0
:100520002C91848D90E001968F739927848FA689F2
:10053000B7892C93A089B1898C9180648C93938D19
:10054000848D981306C00288F389E02D80818F7D09
:1005500080830895EF92FF920F931F93CF93DF93C1
:10056000EC0181E0888F9B8D8C8D981305C0E88904
:10057000F989808185FD23C0F62E0B8D10E00F5F79
:100580001F4F0F731127E02E8C8DE8120BC00FB692
:1005900007FCFACFE889F989808185FFF5CFCE0184
:1005A000B8DFF2CF8B8DFE01E80FF11DE35AFF4F4C
:1005B000F0820B8FEA89FB898081806207C0EE8917
:1005C000FF896083E889F98980818064808381E084
:1005D00090E0DF91CF911F910F91FF90EF900895E0
:1005E000CF93DF93EC01888D8823C1F0EA89FB89E2
:1005F000808185FD05C0A889B9898C9186FD0EC0D2
:100600000FB607FCF5CF808185FFF2CFA889B989A5
:100610008C9185FFEDCFCE017CDFE8CFDF91CF91CC
:10062000089580E090E0892B19F06ADF811120C0E5
:1006300080E090E0892B19F05ADF81111CC080E026
:1006400090E0892B41F080E090E0892B21F00E941E
:100650000000811113C080E090E0892BA1F080E0C0
:1006600090E0892B81F00E94000081110AC008955A
:100670000E940000DDCF0E940000E1CF0E94000038
:10068000EACF0C940000089521E0FC0184858F3F9F
:1006900009F420E0822F0895CF93DF93EC01E881E5
:1006A000F9810084F185E02DCE011995892B41F067
:1006B000E881F9810284F385E02DCE011995EFCF11
:1006C000DF91CF910895CF93DF931F92CDB7DEB71F
:1006D0006983DC01ED91FC910280F381E02D41E022
:1006E00050E0BE016F5F7F4F19950F90DF91CF9162
:1006F0000895089580E090E008956115710579F0FE
:10070000FB0101900020E9F73197AF01461B570B21
:10071000DC01ED91FC910280F381E02D199480E0E1
:1007200090E008950F931F93CF93DF93EC0188819E
:100730009981009729F02A813B812617370788F491
:100740008B016F5F7F4F0E942B19009761F0998397
:1007500088831B830A832C813D81232B11F4FC01A8
:10076000108281E001C080E0DF91CF911F910F9155
:1007700008950C9493188F929F92AF92BF92CF924C
:10078000DF92EF92FF920F931F93CF93DF931F920D
:100790001F92CDB7DEB77C018A01DC01ED91FC919F
:1007A0000084F185E02D69837A83199569817A81C6
:1007B000892B19F48FEF9FEF58C0F7019485809132
:1007C0003004981350C08091310490913204A0916C
:1007D0003304B09134044801A12CB12C881599053B
:1007E000AA05BB050CF48C016B017B01E00EF11E28
:1007F000CE14DF04B1F10E94970C4B015C01809193
:100800006F0490917004DC01ED91FC910284F385FA
:10081000E02D199597FF0EC00E94970CDC01CB01CB
:1008200088199909AA09BB09883E9340A105B10519
:1008300030F3C0CFD6018D936D018091310490913A
:100840003204A0913304B09134040197A109B10995
:100850008093310490933204A0933304B093340412
:10086000C7CFC80102C080E090E00F900F90DF91E9
:10087000CF911F910F91FF90EF90DF90CF90BF909D
:10088000AF909F908F9008950F931F93CF93DF9316
:100890001F921F92CDB7DEB78C01DC01ED91FC9168
:1008A0000084F185E02D1995892B29F11982F80131
:1008B000848590913004891309C09E012F5F3F4FBA
:1008C00041E0BE016E5F7F4F0E94A30C89818823A7
:1008D00079F0D8011C96EC911C97F0E0EE0FFF1F09
:1008E000E050FE4F8FEF9FEF918380831C968C9397
:1008F0008A8190E002C08FEF9FEF0F900F90DF9101
:10090000CF911F910F9108950F931F93CF93DF9372
:100910001F921F92CDB7DEB78C01DC01ED91FC91E7
:100920000084F185E02D1995892B21F11982F801B8
:10093000848590913004891308C09E012F5F3F4F3A
:1009400040E0BE016E5F7F4FFED78981882379F03A
:10095000D8011C96EC911C97F0E0EE0FFF1FE050C1
:10096000FE4F8FEF9FEF918380831C968C938A813B
:1009700090E002C08FEF9FEF0F900F90DF91CF912B
:100980001F910F9108950C949E0EEF92FF920F937A
:100990001F93CF93DF93CDB7DEB762970FB6F8946E
:1009A000DEBF0FBECDBF7C01FB0185811F928F93FF
:1009B00084811F928F9383811F928F9382811F92D4
:1009C0008F9324E532E03F932F938E010F5F1F4FEB
:1009D0001F930F93498B5A8B0E94391A49895A8960
:1009E000B801C7010E949E0E0FB6F894DEBF0FBE7D
:1009F000CDBF62960FB6F894DEBF0FBECDBFDF91BC
:100A0000CF911F910F91FF90EF900895EF92FF9279
:100A10000F931F93CF93DF93FC01248135816115E0
:100A2000710511F480E018C041155105A1F07B015A
:100A3000EC018A01020F131FB80174DE882391F3C1
:100A4000288139818C819D81B701820F931F0E947B
:100A5000231A1D830C8381E0DF91CF911F910F91A9
:100A6000FF90EF900895CF93DF93EC0188819981F7
:100A7000009711F00E949318198218821D821C821F
:100A80001B821A82DF91CF910895EF92FF920F930C
:100A90001F93CF93DF93CDB7DEB728970FB6F894A7
:100AA000DEBF0FBECDBF7C01CB014AE08E010F5FE0
:100AB0001F4FB8010E947F14F80101900020E9F750
:100AC0003197AF01401B510BB801C7019FDF811166
:100AD00002C0C701C8DFC70128960FB6F894DEBF71
:100AE0000FBECDBFDF91CF911F910F91FF90EF907F
:100AF0000895CF93DF93EC016115710559F0FB0167
:100B000001900020E9F73197AF01461B570B7EDFBC
:100B1000811102C0CE01A7DFCE01DF91CF910895F0
:100B2000CF93DF93EC01FB0144815581608171819A
:100B30006DDF811102C0CE0196DFCE01DF91CF9132
:100B40000895EF92FF920F931F93CF93DF93EC01E1
:100B50007B018A01BA01E6DD811103C0CE0183DF8A
:100B600007C01D830C83B701888199810E94231AD5
:100B7000CE01DF91CF911F910F91FF90EF900895DB
:100B8000CF93DF93EC01FB018617970751F060814B
:100B900071816115710521F044815581D2DF01C059
:100BA00062DFCE01DF91CF910895FC0180819181B8
:100BB0000C949318FC011182108213821282158208
:100BC0001482DECFFC011182108213821282158200
:100BD00014826115710549F0FB0101900020E9F7CD
:100BE0003197AF01461B570BACCF08950F931F935E
:100BF000CF93DF93EC019BD6688779878A879B87A1
:100C0000E881F9810484F585E02DCE01199597FFDF
:100C100016C08DD6088519852A853B85DC01CB0158
:100C2000801B910BA20BB30B0C811D812E813F8188
:100C300080179107A207B30718F38FEF9FEFDF919B
:100C4000CF911F910F9108950F931F93CF93DF932F
:100C5000EC016DD6688779878A879B87E881F9815F
:100C60000284F385E02DCE01199597FF16C05FD65B
:100C7000088519852A853B85DC01CB01801B910BFA
:100C8000A20BB30B0C811D812E813F818017910730
:100C9000A207B30718F38FEF9FEFDF91CF911F915A
:100CA0000F910895CF92DF92EF92FF920F931F93CF
:100CB000CF93DF934091310450913204609133041B
:100CC00070913404141615061606170644F4909114
:100CD0003004981711F0911102C0CA01FEC0182FFC
:100CE00080916F0490917004DC01ED91FC9100847F
:100CF000F185E02D1995892B19F480E090E0EDC085
:100D0000E0906F04F0907004C0E0D0E0C7019CDF79
:100D100097FD43C0FE01E05AFD4F2081022E000CDA
:100D2000330B8217930789F1209781F361E672E014
:100D30009E0121503109F901E05AFD4F4081042EF6
:100D4000000C550B84179507E1F421153105F1F2DC
:100D5000E0E6F2E040E050E001916B01C40ED51EE8
:100D6000D601DC900D1539F04217530779F26F5F09
:100D70007F4FE901DDCF4F5F5F4F4217530760F3AD
:100D8000F3CF2115310599F7BFCF2196C530D10595
:100D900009F0BCCF80E090E002C08FEF9FEF892B7D
:100DA00009F0ABCF80916F049091700421D76093CC
:100DB000300480916F0490917004DC01ED91FC91FE
:100DC0000284F385E02D199580916F049091700451
:100DD0000FD760933104709332048093330490935F
:100DE000340480916F0490917004DC01ED91FC91CA
:100DF0000284F385E02D199580916F049091700421
:100E0000F7D660932C0480916F0490917004DC01FC
:100E1000ED91FC910284F385E02D199580916F048A
:100E200090917004E5D660932D0480916F049091A9
:100E30007004DC01ED91FC910284F385E02D19959D
:100E400080916F0490917004D3D660932E048091AA
:100E50006F0490917004DC01ED91FC910284F385A4
:100E6000E02D199580916F0490917004C1D6609324
:100E70002F0480916F0490917004DC01ED91FC913E
:100E80000284F385E02D199580916F049091700490
:100E9000DC01ED91FC910284F385E02D19958091A0
:100EA0006F0490917004A4D670932B0460932A046D
:100EB00080916F0490917004DC01ED91FC910284AB
:100EC000F385E02D199580913004811711F01111EF
:100ED00014CF8091310490913204DF91CF911F9112
:100EE0000F91FF90EF90DF90CF900895FC018485E3
:100EF0008F3F19F0D7DE97FF02C080E090E00895A1
:100F00004F925F926F927F92EF92FF920F931F9397
:100F1000CF93DF93CDB7DEB7A1970FB6F894DEBFBE
:100F20000FBECDBF7C01FA01CB0119A2223008F41B
:100F30002AE08E010F5D1F4F422E512C612C712C27
:100F4000BF01A30192010E94BB17F901CA01015020
:100F500011096A3014F4605D01C0695CD8016C93BA
:100F6000232B242B252B61F7B801C701C6DBA196E3
:100F70000FB6F894DEBF0FBECDBFDF91CF911F91AA
:100F80000F91FF90EF907F906F905F904F9008953A
:100F90008F929F92AF92BF92CF92DF92EF92FF9289
:100FA0000F931F93CF93DF937C01EB016C0182E0E1
:100FB000C80ED11C4701E5E08E0E911C00E010E048
:100FC000F60141916F0150E060E070E02AE0CE014F
:100FD00097DF5C01E881F9810190F081E02D6EE2FC
:100FE000CE0119958A0D9B1D080F191FC814D9042D
:100FF00039F7F701458150E060E070E02AE0CE016A
:101000007FDF800F911FDF91CF911F910F91FF9094
:10101000EF90DF90CF90BF90AF909F908F9008950A
:1010200060EC73E06ACB0F931F93CF93DF93EC01D7
:1010300064DB8C01CE01F4DF800F911FDF91CF9133
:101040001F910F91089559CBEF92FF920F931F9329
:10105000CF93DF938C017B01C0E0D0E0F701EC0F70
:10106000FD1F6491662361F0D801ED91FC91019020
:10107000F081E02DC8011995892B11F02196EECF52
:10108000CE01DF91CF911F910F91FF90EF900895C6
:101090000F931F93CF93DF93EC01D6DF8C01CE012A
:1010A000BFDF800F911FDF91CF911F910F910895A6
:1010B0001F920F920FB60F9211240BB60F922F931F
:1010C0003F934F935F936F937F938F939F93AF93D0
:1010D000BF93EF93FF9381E794E01BDAFF91EF91C9
:1010E000BF91AF919F918F917F916F915F914F9140
:1010F0003F912F910F900BBE0F900FBE0F901F903E
:1011000018951F920F920FB60F9211240BB60F92E3
:101110002F933F934F935F936F937F938F939F93FF
:10112000AF93BF93EF93FF9381E794E08AD9FF9148
:10113000EF91BF91AF919F918F917F916F915F914F
:101140004F913F912F910F900BBE0F900FBE0F90BC
:101150001F9018951F920F920FB60F9211240BB685
:101160000F922F933F934F935F936F937F938F9340
:101170009F93AF93BF93EF93FF938EE095E0C9D910
:10118000FF91EF91BF91AF919F918F917F916F915F
:101190005F914F913F912F910F900BBE0F900FBE1B
:1011A0000F901F9018951F920F920FB60F92112457
:1011B0000BB60F922F933F934F935F936F937F9351
:1011C0008F939F93AF93BF93EF93FF938EE095E040
:1011D00038D9FF91EF91BF91AF919F918F917F91FE
:1011E0006F915F914F913F912F910F900BBE0F9098
:1011F0000FBE0F901F90189580916F04909170040E
:10120000DC01ED91FC910084F185E02D1995181613
:10121000190664F480916F0490917004DC01ED91E3
:10122000FC910284F385E02D1995E6CF08953F9255
:101230004F925F926F927F928F929F92AF92BF92E6
:10124000CF92DF92EF92FF920F931F93CF93DF9392
:101250006C015B01342E8091AD059091AE059093A9
:10126000B2058093B10563D32B013C01CFEFDFEFD3
:101270000D2C000CEE08FF085AD3DC01CB018419B9
:101280009509A609B7098C159D05AE05BF0508F09F
:101290005BC0CF3FFFEFDF0709F056C080916F04BE
:1012A00090917004DC01ED91FC910084F185E02DBA
:1012B0001995892B09F380916F0490917004DC01DA
:1012C000ED91FC910284F385E02D1995E091B10533
:1012D000F091B20580838091B1059091B20501969D
:1012E0009093B2058093B1052091AF053091B00580
:1012F0008217930740F08091AD059091AE059093D1
:10130000B2058093B105A114B10431F0C5013CD4FC
:10131000882311F0C5E0D0E0332009F4ADCF8EE092
:10132000882E82E0982E00E010E0F40181919191E6
:101330004F012AD4811106C00F5F1F4F05301105E0
:10134000A1F79ACFE80198CFF2D2DC01CB01841942
:101350009509A609B7098C159D05AE05BF0550F086
:1013600066E672E08EE095E06EDE63E071E08EE0AE
:1013700095E08EDECE01DF91CF911F910F91FF900E
:10138000EF90DF90CF90BF90AF909F908F907F9025
:101390006F905F904F903F900895AF92BF92CF9221
:1013A000DF92EF92FF920F931F93CF93DF93CDB70E
:1013B000DEB764970FB6F894DEBF0FBECDBF7C01D9
:1013C0005B018A01DC011C968C91843018F4411574
:1013D000510531F481E090E0F7019383828379C075
:1013E0001F934F931F928F9389E491E09F938F9364
:1013F0009E012F5F3F4F69013F932F930E94AA14D4
:10140000B60180916F04909170040DDE40E061E7B9
:1014100072E088EE93E00BDF0FB6F894DEBF0FBEEC
:10142000CDBF059741F066E672E08EE095E00BDEF9
:101430006EE271E01DC080916F0490917004DC0138
:10144000ED91FC910280F381E02DA801B501199581
:1014500041E060E070E080ED97E0E9DE039709F499
:101460003BC066E672E08EE095E0EDDD63E171E0A1
:101470008EE095E00DDE81E090E0F70193838283BA
:1014800066E672E08EE095E0DEDD6AE571E08EE012
:1014900095E0DADD63E073E08EE095E0D4DDD7011E
:1014A0001C964C9150E060E070E02AE08EE095E000
:1014B00027DD8EE095E0B4DD60EA7FE080E090E03B
:1014C000FED1D701ED91FC910488F589E02DC7018B
:1014D000199580E090E001C0C80164960FB6F894B9
:1014E000DEBF0FBECDBFDF91CF911F910F91FF9057
:1014F000EF90DF90CF90BF90AF900895AF92BF92E2
:10150000CF92DF92EF92FF920F931F93CF93DF93CF
:101510005C016B017A01E901188281E06DDEB501A1
:1015200080916F0490917004B3DD41E0B60188EEC4
:1015300093E07DDE8530910509F047C08091AD05CF
:101540009091AE059093B2058093B1054091AB05A3
:101550005091AC054F5F5F4F60E070E00E941C1A35
:1015600041E0B70184EF91E062DE059731F5A80113
:1015700041505109F70101900020E9F73197CF015F
:101580008E199F096091AD057091AE05E091B1058E
:10159000F091B205E61BF70BE81BF90B4E175F073E
:1015A00008F0AF01CE010E942A1A41E060E070E02D
:1015B00080ED97E03CDE81E015C066E672E08EE0EB
:1015C00095E041DD64EE70E009C0059750F066E6F5
:1015D00072E08EE095E037DD66EF70E08EE095E03A
:1015E00057DD80E0DF91CF911F910F91FF90EF9039
:1015F000DF90CF90BF90AF900895CF92DF92EF929F
:10160000FF920F931F93CF93DF93CDB7DEB76E9703
:101610000FB6F894DEBF0FBECDBFFC0184858F3FAF
:10162000C1F17F013FDB892B11F094E033C0D7017A
:101630001C968C911F928F938FE991E09F938F93CB
:10164000FE0131966F01FF93EF930E94AA140AE006
:1016500010E09E012B5E3F4F44E652E0B60182E966
:1016600091E04CDF0F900F900F900F900F900F9024
:101670008111DBCFD7011C96EC911C97F0E0EE0FA7
:10168000FF1FE050FE4F8FEF9FEF918380831C96EA
:101690008C9390E081E0943009F080E06E960FB674
:1016A000F894DEBF0FBECDBFDF91CF911F910F9198
:1016B000FF90EF90DF90CF900895CF93DF93CDB759
:1016C000DEB7C85CD1090FB6F894DEBF0FBECDBF40
:1016D0009E012E523F4FC253DF4F48815981CE5C4D
:1016E000D04068EC70E0CE0101960E94D91481E0F0
:1016F00083DDBE016F5F7F4F80916F049091700416
:1017000092DC41E060E070E0C053DF4F8881998156
:10171000C05DD0408CDDC853DF4F0FB6F894DEBFFC
:101720000FBECDBFDF91CF910895CF93DF93FC0122
:1017300024852F3FC1F1EC0166E672E08EE095E072
:1017400082DC63E871E08EE095E07EDC63E073E0CC
:101750008EE095E078DC4C8550E060E070E02AE0B7
:101760008EE095E0CDDB8EE095E05ADC8C851F9213
:101770008F938FE08F9380EA8F9384E791E09F931C
:101780008F939BDFEC85F0E0EE0FFF1FE050FE4FE4
:101790008FEF9FEF918380838C870F900F900F9036
:1017A0000F900F900F90DF91CF9108956F927F92DD
:1017B0008F929F92AF92BF92CF92DF92EF92FF9261
:1017C0000F931F93CF93DF9300D01F92CDB7DEB757
:1017D0004C015A016DB67EB6CB012B833C836983E5
:1017E0007A830E944C1401964DB75EB7481B590B83
:1017F0000FB6F8945EBF0FBE4DBF8DB79EB7019672
:101800007C0169817A810E944514C5010E944C14B3
:1018100001964DB75EB7481B590B0FB6F8945EBFE3
:101820000FBE4DBF8DB79EB701966C01B5010E94EA
:1018300045142B813C81A601B701C4015FDE0FB6C0
:10184000F8947EBE0FBE6DBE0F900F900F900F905C
:10185000DF91CF911F910F91FF90EF90DF90CF908C
:10186000BF90AF909F908F907F906F900895089554
:101870003FB7F89480916B0490916C04A0916D0433
:10188000B0916E0426B5A89B05C02F3F19F00196B4
:10189000A11DB11D3FBFBA2FA92F982F8827820FF6
:1018A000911DA11DB11DBC01CD0142E0660F771F46
:1018B000881F991F4A95D1F708950E940F1A8F9299
:1018C0009F92AF92BF92CF92DF92EF92FF926B0105
:1018D0007C01CEDF4B015C01C114D104E104F104B1
:1018E000E9F0C6DFDC01CB0188199909AA09BB0917
:1018F000883E9340A105B10578F321E0C21AD108D2
:10190000E108F10888EE880E83E0981EA11CB11C46
:10191000C114D104E104F10421F7DECFFF90EF9070
:10192000DF90CF90BF90AF909F908F9008952FB78A
:10193000F8946091670470916804809169049091B3
:101940006A042FBF08958F929F92AF92BF92EF9239
:10195000FF920F931F93CF93DF93C82F8B01D42F48
:101960007901E5DF4B015C0180916F049091700477
:10197000DC01ED91FC910084F185E02D1995892B16
:1019800009F46FC080916F0490917004DC01ED91B7
:10199000FC91DD2339F00484F585E02D1995F801DB
:1019A000808319C00284F385E02D1995F8018083A6
:1019B0008091310490913204A0913304B0913404A9
:1019C0000197A109B1098093310490933204A09347
:1019D0003304B09334048091310490913204A09187
:1019E0003304B0913404892B8A2B8B2B11F081E0C6
:1019F00076C065E070E080E090E061DF80916F0488
:101A000090917004DC01ED91FC910084F185E02D52
:101A10001995892B61F380916F0490917004DC011A
:101A2000ED91FC910484F585E02D1995D0E0E096C8
:101A30008C179D07E1F640E064EA72E084EF91E0E4
:101A4000F6DB059751F066E672E08EE095E0FBDA92
:101A500061E373E08EE095E01BDB81E0F7018083BA
:101A60003EC065DFDC01CB0188199909AA09BB09D1
:101A7000803D9740A105B10508F476CF66E672E097
:101A80008EE095E0E0DA68E273E08EE095E0DCDA83
:101A900063E073E08EE095E0D6DA40913104509136
:101AA0003204609133047091340477FF04C0CB0199
:101AB000BA01ACD104C02AE08EE095E021DA8EE0D4
:101AC00095E0AEDA10923104109232041092330491
:101AD0001092340410923004D8011C9280E0DF91FF
:101AE000CF911F910F91FF90EF90BF90AF909F907B
:101AF0008F9008951F920F920FB60F9211242F937B
:101B00003F938F939F93AF93BF938091670490917E
:101B10006804A0916904B0916A043091660423E0DE
:101B2000230F2D3720F40196A11DB11D05C026E815
:101B3000230F0296A11DB11D2093660480936704B4
:101B400090936804A0936904B0936A0480916B0435
:101B500090916C04A0916D04B0916E040196A11D4A
:101B6000B11D80936B0490936C04A0936D04B093AB
:101B70006E04BF91AF919F918F913F912F910F90E4
:101B80000FBE0F901F901895FC0101900020E9F7FF
:101B900031979F01281B390BE091B105F091B205F7
:101BA000E21BF30B4091AD055091AE05E417F5072C
:101BB00030F46091AB057091AC05E60FF71F280F6C
:101BC000391F6091AF057091B005DC018217930752
:101BD00058F40196BC91A081BA1308C03196E6175B
:101BE000F70799F7FA01F1CF81E0089580E00895B1
:101BF000AF92BF92CF92DF92EF92FF921F93CF935B
:101C0000DF9300D01F92CDB7DEB75C01C5010E9403
:101C1000F605FC0197FD0FC08D32910581F0C0974C
:101C20000A9768F0D501ED91FC910284F385E02DCF
:101C3000C5011995EBCF60E070E0CB014AC020E010
:101C400030E0A90110E0E130F105E9F0ED32F105F5
:101C5000C9F0CF01C0970A97B0F4AAE0B0E00E94A3
:101C6000DD176F01FF0FEE08FF08DC01CB018C0DC3
:101C70009D1DAE1DBF1D9C01AD01205331094109C1
:101C8000510901C011E0D501ED91FC910284F38569
:101C9000E02DC50129833A834B835C831995C501E7
:101CA0000E94F605FC01C09729813A814B815C8135
:101CB0000A9748F2E130F10531F2112341F066272D
:101CC0007727CB01621B730B840B950B02C0CA01F3
:101CD000B9010F900F900F900F90DF91CF911F914E
:101CE000FF90EF90DF90CF90BF90AF900895CF938B
:101CF000DF93FC0144815581608171818EE095E024
:101D00000E94F601EC018EE095E08AD98C0F9D1FB0
:101D1000DF91CF910895CF93DF93EC0181E06CDAEE
:101D2000BE0180916F0490917004B2D941E060E0EF
:101D300070E088EE93E0DF91CF9179CAEF92FF9245
:101D40000F931F93CF93DF931F921F92CDB7DEB7F0
:101D50007C01162F072F66E672E08EE095E049833E
:101D60005A8371D967E773E08EE095E06DD963E03F
:101D700073E08EE095E067D9612F702F8EE095E0DB
:101D800052D9E8E0F2E023E030E05A8149819291B3
:101D90008291019621F021503109C8F72FEFF70108
:101DA00024872F3F19F15F934F930F931F931F9237
:101DB0002F9383E18F9388E88F938AE593E09F9335
:101DC0008F937BDC0FB6F894DEBF0FBECDBF892B9F
:101DD00091F4F701848590E0FC01EE0FFF1FE050C5
:101DE000FE4F9183808381E090E007C066E473E05A
:101DF0008EE095E04DD980E090E00F900F90DF915C
:101E0000CF911F910F91FF90EF900895CF92DF92A5
:101E1000EF92FF92CF93DF936B017C01E0910E056F
:101E2000F0910F050190F081E02D6DE28EE095E0DC
:101E30001995EC0144275527BA014C195D096E0923
:101E40007F092AE08EE095E05BD88C0F9D1FDF9123
:101E5000CF91FF90EF90DF90CF900895FC01A08983
:101E6000B18982E08C93A485B5851C92A685B7853F
:101E700080E18C93108EA489B58986E08C93A28929
:101E8000B3898C9180618C93A289B3898C9188608D
:101E90008C93A289B3898C9180688C930288F38992
:101EA000E02D80818F7D80830895CF93DF93CDB720
:101EB000DEB7C454D1090FB6F894DEBF0FBECDBF54
:101EC000789484B5826084BD84B5816084BD85B515
:101ED000826085BD85B5816085BD80916E00816021
:101EE00080936E00109281008091810082608093C7
:101EF00081008091810081608093810080918000C9
:101F00008160809380008091B10084608093B100F3
:101F10008091B00081608093B000809191008260D8
:101F200080939100809191008160809391008091D5
:101F300090008160809390008091A10082608093E6
:101F4000A1008091A10081608093A1008091A000F8
:101F500081608093A00080912101826080932101A3
:101F60008091210181608093210180912001816015
:101F70008093200180917A00846080937A00809120
:101F80007A00826080937A0080917A0081608093E9
:101F90007A0080917A00806880937A001092C10064
:101FA0008EEA92E090936504809364048EEB92E055
:101FB00090936304809362048EE095E04FDF81E7A5
:101FC00094E04CDF66E672E08EE095E03CD86EE689
:101FD00072E08EE095E05CD881E794E09093700425
:101FE00080936F0405E010E08BE692E094DE892B8D
:101FF00009F4F5C268EE73E080E090E060DC015027
:10200000110991F766E672E08EE095E01CD86EE467
:1020100072E08EE095E03CD868E873E180E090E003
:102020004EDC0AE010E09E012F5F3F4F790140E156
:1020300053E063E173E08BE193E0B8DB882359F070
:10204000992493948EE4882E90E2D92E28EAA22E29
:1020500022E0B22E4CC069EC72E08EE095E00E9466
:102060001308FFCF61EE72E08EE095E00E94230836
:1020700060916404709165048EE095E00E941308FD
:10208000809162049091630400916404109165044E
:1020900090925F049F938F931F930F938F92DF9281
:1020A000BF92AF920ADB0FB6F894DEBF0FBECDBF72
:1020B00066E672E0892B19F58EE095E00E94230810
:1020C00066E872E08EE095E00E94240863E073E029
:1020D0008EE095E00E942308B8018EE095E00E9412
:1020E000130881E090E090936104809360048091F4
:1020F000600490916104019709F0B4CF1FC08EE095
:1021000095E00E94230863E972E08EE095E00E946A
:10211000240863E073E08EE095E00E942308B80194
:102120008EE095E00E94130868EE73E080E090E096
:10213000C6DB80E061D882E090E0D5CF65E073E057
:102140008EE095E00E9413086EEF72E08EE095E05D
:102150000E94230810923B0400E210E02BE334E0DD
:102160004FEB52E061EC72E08AEC92E01FDB6BE334
:1021700074E08EE095E00E9413088CE492E09E8B60
:102180008D8B1F8A188E198E1A8E80915F0404E140
:1021900010E09701813039F44CEE52E06EEE72E0BF
:1021A00087EF92E006C044ED52E066ED72E082EE09
:1021B00092E0FCDA882359F168E274E0C70175D334
:1021C00047D380935B0468E274E080E090E06DD3D5
:1021D0003FD380935C0468E274E080E090E065D3D4
:1021E00037D380935D0468E274E080E090E05DD3D3
:1021F0002FD380935E0480915B0490915C04A09146
:102200005D04B0915E048F8B988FA98FBA8F65E2C1
:1022100073E08EE095E00E9423086EE075E0CE0149
:1022200045960E94C8078EE095E00E9410080AE0DB
:1022300010E0970140E053E063E073E086E093E054
:10224000B5DA8981082E000C990BC0970A9730F4F3
:10225000C701FED291958195910902C080E090E07E
:102260004C01990FAA08BB0862E373E08EE095E089
:102270000E942308B7FE04C0C501B401C7DD07C032
:102280002AE0B501A4018EE095E00E9480076AE48F
:1022900073E08EE095E00E9413088EE095E00E94C6
:1022A00010086FE473E08EE095E00E94130840E9A7
:1022B0005FE160E773E089EB95E00E94C304892B3E
:1022C00009F443C16CE773E08EE095E00E941308C7
:1022D00060E973E0CE01C9960E94E205CE01C9967D
:1022E00006DD00E010E0BE01675C7F4FC70101150D
:1022F000110531F40E94DA0568EC70E0C70109C0ED
:102300000E94DA0564E672E0C7010E94790564EF75
:1023100071E00E944505BC01CE01C9960E94C0052E
:10232000C7010E94D505CE01C996E1DC0130110537
:1023300019F001E010E0D7CFBE01675C7F4FC70105
:102340000E94DA0562E973E0C7010E947905BC01C9
:10235000CE01C9960E94C005C7010E94D50564E957
:1023600073E0CE01C3960E94E20566E973E0CE01F8
:102370008D960E94E20518A61FA21AA619A61CA6F1
:102380001BA64AE0B70181E090E0B9D2F7010190C5
:102390000020E9F73197AF014E195F09B701CE016F
:1023A00087960E94A10564E672E0CE0181960E94A4
:1023B000E2056CE973E0CE014B960E94E20563EA08
:1023C00073E0CE0145960E94E205BE016D5C7F4F31
:1023D000C7010E94DA05BE01635D7F4FC7010E94FD
:1023E0009005BE01695D7F4F0E949005BE016F5D43
:1023F0007F4F0E949005BE01655E7F4F0E94900551
:10240000BE01675C7F4F0E949005BE016B5E7F4FEF
:102410000E949005BC01CE01CF960E94DA05C7014B
:102420000E94D505CE0145960E94D505CE014B965A
:102430000E94D505CE0181960E94D505CE018796D2
:102440000E94D505CE018D960E94D505CE01C3967A
:102450000E94D505CE01C9960E94D5052596AEAC41
:10246000BFAC259765EA73E0CE014B960E94E2056A
:10247000BE01655E7F4FCE0145960E94DA056BEA8C
:1024800073E0CE0145960E94790567EB73E00E94E8
:10249000790563EC73E00E9479056AEC73E00E94B1
:1024A000790560EC73E00E9479056BED73E00E94A2
:1024B00079056CEF73E00E9479058C014AE0B70161
:1024C000C5012FD2F70101900020E9F73197AF0144
:1024D0004E195F09B701C8010E940605811103C0AA
:1024E000C8010E94330560EC73E0C8010E947905C1
:1024F00060EC73E00E947905BE01615C7F4F0E9431
:10250000900561EC73E00E947905E091B905F091C6
:10251000BA05DC0114964D915C9115976D917C91F3
:102520000280F381E02D89EB95E01995CE01459667
:102530000E94D505CE014B960E94D505CE01CF96BF
:10254000D6DBCE01CF960E94D50501E117E289EBDB
:1025500095E00E947607892B09F501501109F1F0E9
:102560006AE070E080E090E0AAD9F1CF8D3091056B
:1025700081F08D8B1E8A41E050E0BE016B5E7F4F83
:10258000C7010E94060589EB95E00E94240697FF8B
:10259000EDCFC701ACDBC7010E94D50589EB95E003
:1025A0000E947607892B31F062EC73E0C7010E942C
:1025B000E205E9CF89EB95E020D881110DC08EE0CE
:1025C00095E00E9410086DE074E08EE095E00E94B6
:1025D000130889EB95E0A9D80E941103FDCF8EE086
:1025E00092E099DB68EB7BE080E090E068D980E0E6
:1025F0000E94FC0889E092E08EDB8DEF91E08BDB9E
:1026000068EC70E080E090E05AD981EF91E083DBE4
:1026100083EE91E080DB83ED91E07DDB85EC91E062
:102620007ADB68EC70E080E090E049D910923504E4
:1026300006E010E025E334E04EEA51E061EB71E0A2
:102640008EEB91E0B3D8809135048153823020F431
:10265000809136048E32E9F066E672E08EE095E015
:102660000E94230860E372E08EE095E00E94240857
:1026700063E073E08EE095E00E94230865E374E078
:102680008EE095E00E94130860EA7FE080E090E031
:10269000C7CC66E672E08EE095E00E94230865E113
:1026A00072E08EE095E00E94240863E073E08EE023
:1026B00095E00E94230865E374E08EE095E00E94B7
:1026C0001308AFCCCF92DF92EF92FF920F931F933C
:1026D000CF93DF93E6ECF5E0CCE4D2E0D183C08386
:1026E0001282138214821582E1E7F4E013821282CF
:1026F00088EEC82E83E0D82EE12CF12CC482D5823E
:10270000E682F7828CE192E0918380832DEC30E0C9
:10271000358724872CEC30E03787268728EC30E09B
:10272000318B208B29EC30E0338B228B2AEC30E08C
:10273000358B248B2EEC30E0378B268B118E128E4E
:10274000138E148EEEE0F5E013821282C482D582DD
:10275000E682F7829183808385EC90E09587848779
:1027600084EC90E09787868780EC90E0918B808B5B
:1027700081EC90E0938B828B82EC90E0958B848B44
:1027800086EC90E0978B868B118E128E138E148EB2
:10279000ECECF5E0D183C08312821382148215829F
:1027A000E2EDF5E0D183C083128213821482158298
:1027B000E8EDF5E0D183C083128213821482158282
:1027C000EEEDF5E0D183C08312821382148215826C
:1027D000E3EBF5E0D183C083128213821482158269
:1027E0000BEA15E080E290E0F8019183808381E2BA
:1027F00090E004D4F801938382839C01205E3F4FD4
:10280000358324839783868321E2FC0111922A95E4
:10281000E9F7E4EEF5E0D183C083128213821482DB
:102820001582E9EBF5E013821282C482D582E6823A
:10283000F7828EE292E0918380838FEF8487DF912D
:10284000CF911F910F91FF90EF90DF90CF9008955F
:10285000FC0188279927E89421912032E9F3293057
:1028600010F02E30C8F32B3239F02D3231F4689449
:1028700003C04FD0820F911D219120532A30C8F3FD
:102880001EF4909581959F4F0895FB01DC01059002
:102890000D920020E1F70895FC0105900020E9F772
:1028A000809590958E0F9F1F08954AEE55E000C0C9
:1028B000FA01A191B081009719F41097E1F0CD01D0
:1028C000DC01CD010D90002011F4C00113C0FB010B
:1028D0002191222319F02015D9F7F3CFFB01219183
:1028E000201519F41E92119606C02223C1F70D90EF
:1028F0000020A1F7D001FA01A193B0830895BB276E
:102900004A3031F4992322F4BDE2909581959F4F8E
:1029100009C07AE0979F902D879F802D910D1124FB
:102920000895BB27FB015527AA27880F991FAA1FC7
:10293000A41710F0A41B83955051B9F7A05DAA33DA
:1029400008F0A95DA193009779F7B111B1931192A5
:10295000CB016BC20F931F93CF93DF93CDB7DEB73D
:102960002E970FB6F894DEBF0FBECDBF0E891F891C
:102970008EE08C831A8309838FEF9FE79E838D837C
:10298000AE01465E5F4F688D798DCE01019649D0CC
:102990002F813885F801E20FF31F10822E960FB6B3
:1029A000F894DEBF0FBECDBFDF91CF911F910F9185
:1029B00008950F931F93CF93DF93CDB7DEB72E9774
:1029C0000FB6F894DEBF0FBECDBF8C01CA014EE03A
:1029D0004C831A83098377FF02C060E070E8FB0133
:1029E0003197FE83ED83A901BC01CE01019619D078
:1029F0004D815E8157FD0AC02F81388542175307EC
:102A00000CF49A01F801E20FF31F10822E960FB614
:102A1000F894DEBF0FBECDBFDF91CF911F910F9114
:102A200008952F923F924F925F926F927F928F9272
:102A30009F92AF92BF92CF92DF92EF92FF920F934D
:102A40001F93CF93DF93CDB7DEB72C970FB6F894D3
:102A5000DEBF0FBECDBF7C016B018A01FC01178276
:102A60001682838181FFB0C1CE0101964C01F7012E
:102A70009381F60193FD859193FF81916F018823E6
:102A800009F49EC1853239F493FD859193FF8191BC
:102A90006F01853221F4B70190E0D7D1E8CF512CF6
:102AA000312C20E02032A0F48B3269F030F48032F7
:102AB00059F0833269F420612CC08D3239F08033B3
:102AC00039F4216026C02260246023C0286021C020
:102AD00027FD27C030ED380F3A3078F426FF06C0C6
:102AE000FAE05F9E300D1124532E13C08AE0389E09
:102AF000300D1124332E20620CC08E3221F426FDBD
:102B00005FC1206406C08C3611F4206802C088368C
:102B100041F4F60193FD859193FF81916F0181113D
:102B2000C1CF982F9F7D9554933028F40C5F1F4F91
:102B3000FFE3F9830DC0833631F0833771F08335BD
:102B400009F057C021C0F801808189830E5F1F4FB3
:102B500044244394512C540114C03801F2E06F0E08
:102B6000711CF801A080B18026FF03C0652D70E0C4
:102B700002C06FEF7FEFC5012C874CD12C01830180
:102B80002C852F77222E16C03801F2E06F0E711CB3
:102B9000F801A080B18026FF03C0652D70E002C05F
:102BA0006FEF7FEFC5012C872AD12C012C8520687F
:102BB000222E830123FC19C0832D90E0481659066C
:102BC000A0F4B70180E290E040D13A94F5CFF5014E
:102BD00027FC859127FE81915F01B70190E035D1F7
:102BE00031103A94F1E04F1A51084114510479F729
:102BF000DEC0843611F0893631F5F80127FF07C0B1
:102C000060817181828193810C5F1F4F08C0608158
:102C10007181072E000C880B990B0E5F1F4F2F76CA
:102C2000722E97FF09C090958095709561957F4FA2
:102C30008F4F9F4F2068722E2AE030E0A4013DD1D3
:102C4000A82EA81843C0853729F42F7EB22E2AE07B
:102C500030E025C0F22FF97FBF2E8F36C1F018F477
:102C6000883579F0ADC0803719F0883721F0A8C0D9
:102C70002F2F2061B22EB4FE0DC08B2D8460B82E94
:102C800009C024FF0AC09F2F9660B92E06C028E015
:102C900030E005C020E130E002C020E132E0F80180
:102CA000B7FE07C060817181828193810C5F1F4FE5
:102CB00006C06081718180E090E00E5F1F4FA4012B
:102CC000FCD0A82EA818FB2DFF777F2E76FE0BC018
:102CD000372D3E7FA51450F474FE0AC072FC08C064
:102CE000372D3E7E05C0BA2C372D03C0BA2C01C04B
:102CF000B52C34FF0DC0FE01EA0DF11D808180333B
:102D000011F4397E09C032FF06C0B394B39404C0F5
:102D1000832F867809F0B39433FD12C030FF06C0CC
:102D20005A2CB31418F4530C5B18B32CB31460F47E
:102D3000B70180E290E03C8788D0B3943C85F6CF21
:102D4000B31410F43B1801C0312C34FF11C0B7018B
:102D500080E390E03C8779D03C8532FF16C031FD9E
:102D600003C088E790E002C088E590E0B7010CC09E
:102D7000832F867851F031FF02C08BE201C080E2E0
:102D800037FD8DE2B70190E060D0A51430F4B701B3
:102D900080E390E05AD05A94F8CFAA94F401EA0D57
:102DA000F11D8081B70190E050D0A110F6CF332003
:102DB00009F45DCEB70180E290E047D03A94F7CFB6
:102DC000F7018681978102C08FEF9FEF2C960FB697
:102DD000F894DEBF0FBECDBFDF91CF911F910F9151
:102DE000FF90EF90DF90CF90BF90AF909F908F902B
:102DF0007F906F905F904F903F902F900895FC01CF
:102E00000590615070400110D8F7809590958E0F15
:102E10009F1F0895FC016150704001900110D8F788
:102E2000809590958E0F9F1F0895DC01FC01672F00
:102E300071917723E1F7329704C07C916D93708391
:102E40006291AE17BF07C8F308950F931F93CF93F6
:102E5000DF93FB01238121FD03C08FEF9FEF28C08B
:102E600022FF16C0468157812481358142175307BE
:102E700044F4A081B1819D012F5F3F4F31832083B6
:102E80008C93268137812F5F3F4F3783268310C075
:102E9000EB01092F182F0084F185E02D1995892B5E
:102EA000E1F68E819F8101969F838E83812F902FE3
:102EB000DF91CF911F910F910895FA01AA27283031
:102EC00051F1203181F1E8946F936E7F6E5F7F4FF7
:102ED0008F4F9F4FAF4FB1E03ED0B4E03CD0670F73
:102EE000781F891F9A1FA11D680F791F8A1F911DC6
:102EF000A11D6A0F711D811D911DA11D20D009F416
:102F000068943F912AE0269F11243019305D319357
:102F1000DEF6CF010895462F4770405D4193B3E040
:102F20000FD0C9F7F6CF462F4F70405D4A3318F0E7
:102F3000495D31FD4052419302D0A9F7EACFB4E098
:102F4000A6959795879577956795BA95C9F7009750
:102F50006105710508959B01AC010A2E06945795F1
:102F6000479537952795BA95C9F7620F731F841F48
:102F7000951FA01D0895A1E21A2EAA1BBB1BFD01DF
:102F80000DC0AA1FBB1FEE1FFF1FA217B307E40748
:102F9000F50720F0A21BB30BE40BF50B661F771FA0
:102FA000881F991F1A9469F7609570958095909580
:102FB0009B01AC01BD01CF01089509D0A59F900DE3
:102FC000B49F900DA49F800D911D11240895A29F80
:102FD000B001B39FC001A39F700D811D1124911DED
:102FE000B29F700D811D1124911D0895EE0FFF1FDA
:102FF000881F8BBF0790F691E02D1994CF93DF9334
:103000008230910510F482E090E0E091EE05F091BD
:10301000EF0520E030E0C0E0D0E0309711F14081D2
:10302000518148175907C0F04817590761F4828148
:103030009381209719F09B838A832BC09093EF058F
:103040008093EE0526C02115310519F0421753076C
:1030500018F49A01BE01DF01EF010280F381E02D37
:10306000DCCF2115310509F1281B390B243031053E
:1030700090F412968D919C9113976115710521F032
:10308000FB019383828304C09093EF058093EE0548
:10309000FD01329644C0FD01E20FF31F819391932D
:1030A000225031092D933C933AC02091EC05309188
:1030B000ED05232B41F420910A0230910B0230934D
:1030C000ED052093EC0520910802309109022115AD
:1030D000310541F42DB73EB740910C0250910D02DD
:1030E000241B350BE091EC05F091ED05E217F30799
:1030F000A0F42E1B3F0B2817390778F0AC014E5F68
:103100005F4F2417350748F04E0F5F1F5093ED05B2
:103110004093EC058193919302C0E0E0F0E0CF0191
:10312000DF91CF9108950F931F93CF93DF93009773
:1031300009F48CC0FC013297138212820091EE05D3
:103140001091EF050115110581F420813181820F65
:10315000931F2091EC053091ED052817390779F57B
:10316000F093ED05E093EC0571C0D80140E050E02C
:10317000AE17BF0750F412962D913C911397AD01F5
:103180002115310509F1D901F3CF9D01DA0133830E
:10319000228360817181860F971F8217930769F4DC
:1031A000EC0128813981260F371F2E5F3F4F318375
:1031B00020838A819B8193838283452B29F4F0931A
:1031C000EF05E093EE0542C01396FC93EE93129741
:1031D000ED01499159919E01240F351FE217F30724
:1031E00071F480819181840F951F029611969C93B2
:1031F0008E938281938113969C938E931297E0E035
:10320000F0E0D80112968D919C911397009719F0D8
:10321000F8018C01F6CF8D919C9198012E5F3F4F64
:10322000820F931F2091EC053091ED052817390787
:1032300069F4309729F41092EF051092EE0502C060
:10324000138212821093ED050093EC05DF91CF916C
:103250001F910F9108956F927F928F929F92AF92DC
:10326000BF92CF92DF92EF92FF920F931F93CF9373
:10327000DF93EC01009781F4CB01DF91CF911F9197
:103280000F91FF90EF90DF90CF90BF90AF909F9005
:103290008F907F906F90B2CEFC01E60FF71F9C01DC
:1032A00022503109E217F30708F4A8C0D9010D91A3
:1032B0001C91119706171707A8F00530110508F49F
:1032C0009BC0C80104978617970708F495C0025061
:1032D0001109061B170B019311936D937C93CF017A
:1032E00022DF8AC05B01A01AB10A4C01800E911E38
:1032F000A091EE05B091EF0540E050E0E12CF12CFB
:10330000109709F44AC0A815B905D1F56D907C90C5
:103310001197630182E0C80ED11CCA14DB0480F14E
:10332000A3014A195B096A0182E0C80ED11C1296FA
:10333000BC9012971396AC91B5E0CB16D10440F037
:10334000B282A38351834083D9016D937C930AC0D9
:103350000E5F1F4FC301800F911FF901918380837E
:10336000EB2DFA2FE114F10431F0D7011396FC9301
:10337000EE93129741C0F093EF05E093EE053CC049
:103380008D919C9111974817590708F4AC017D0164
:1033900012960D90BC91A02DB3CF8091EC05909129
:1033A000ED0588159905E1F446175707C8F4809193
:1033B000080290910902009741F48DB79EB74091A1
:1033C0000C0250910D02841B950BE817F907B0F41D
:1033D000F093ED05E093EC05F901718360830CC077
:1033E000CB010CDE7C01009749F0A801BE011BD087
:1033F000CE0199DEC70104C0CE0102C080E090E09A
:10340000DF91CF911F910F91FF90EF90DF90CF90C0
:10341000BF90AF909F908F907F906F90089581E0C4
:1034200090E0F89455C0FB01DC0102C001900D92C0
:1034300041505040D8F70895DC0101C06D934150D0
:103440005040E0F70895FB01DC0101900D9200204F
:10345000E1F70895FB01DC014150504048F0019034
:103460000D920020C9F701C01D9241505040E0F775
:1034700008950F931F93CF93DF93CDB7DEB72E97A9
:103480000FB6F894DEBF0FBECDBF0E891F8986E050
:103490008C831A8309838FEF9FE79E838D83AE0110
:1034A000465E5F4F688D798DCE010196BADA2F8125
:1034B0003885F801E20FF31F10822E960FB6F894AC
:1034C000DEBF0FBECDBFDF91CF911F910F91089549
:0434D000F894FFCF9E
:1034D400FFFFFFFFFFFFFFFF0000F0058000730206
:1034E4007A0284028D02990200000000AA02F60109
:1034F4003A02F0026B0249025D020000000063031D
:10350400CD097A034C03760784044404C504C30438
:10351400BB03950BFD0A440300000000C80700002C
:1035240000005D0C25642E25642E25642E25640080
:103534002B4950442C005B576946694573705D20E4
:10354400003E000D0A4F4B0D0A000D0A4552524F22
:10355400520D0A000D0A4641494C0D0A000D0A534A
:10356400454E44204F4B0D0A0020434F4E4E4543D9
:10357400540D0A002C434C4F5345440D0A0057691F
:1035840046692D41726E65742D50473233003759A8
:1035940054474836444435300057694669207368B7
:1035A40069656C64206E6F742070726573656E74E7
:1035B40000417474656D7074696E6720746F206364
:1035C4006F6E6E65637420746F205750412053539F
:1035D40049443A2000596F7527726520636F6E6EF7
:1035E400656374656420746F20746865206E657407
:1035F400776F726B00495020416464726573733A4B
:1036040020005369676E616C20737472656E677411
:1036140068202852535349293A002064426D0053CC
:1036240074617274696E6720636F6E6E656374692A
:103634006F6E20746F207365727665722E2E2E0065
:103644003139322E3136382E312E3500436F6E6EBD
:10365400656374656420746F2073657276657200A7
:103664005B005D007B00226E68223A002268627370
:10367400223A007D00504F535420002F6865617238
:103684007462656174730020485454502F312E3194
:103694000D0A00486F73743A20003139322E3136E6
:1036A400382E312E353A3830383000436F6E746519
:1036B4006E742D547970653A206170706C69636121
:1036C40074696F6E2F6A736F6E0D0A00436F6E74A8
:1036D400656E742D4C656E6774683A200044697396
:1036E400636F6E6E656374696E672066726F6D20BA
:0A36F4007365727665722E2E2E00AB
:00000001FF
